:0200000480007A
:100000006F00401E6F0080736F00C01C6F00801C6B
:100010006F00401C6F00001C6F00C01B6F00801B36
:100020006F00401B6F00001B6F00C01A6F00801A2A
:100030006F00401A6F00001A6F00C0196F0080191E
:100040006F0040196F0000196F00C0186F00801812
:100050006F0040186F0000186F00C0176F00801706
:100060006F0040176F0000176F00C0166F008016FA
:100070006F0040166F0000166F00C0156F00C0269D
:10008000971102009381C1F517010300130181F755
:1000900017050000130505F713651500731055309B
:1000A0001385C1C717160200130686733306A640D0
:1000B00093050000EF20104017350000130505BA26
:1000C000EF208016EF20902F13050000930500000D
:1000D00013060000EF00C0006F204016678000008C
:1000E000130101D993078100130710009306010142
:1000F0001306800193058001130500242326112691
:10010000232481262322912623202127232E3125D3
:10011000232C4125EF10C04BF32920B0F32400B06D
:10012000930671001306C1009305810013050101B8
:10013000EF10C07313040500732A20B0732900B0B8
:10014000832581001705020013050594EF20405810
:100150008325C1001705020013050594EF204057C1
:10016000930504001705020013050594EF2040567F
:10017000834571001705020013050594EF204055D3
:1001800033063A419705020093850594170502004E
:1001900013050594EF20C0533306994097050200DC
:1001A000938585921705020013054594EF20405270
:1001B0008320C12603248126832441260329012686
:1001C0008329C125032A8125130500001301012776
:1001D0006780000017E5000013051553EF2000614C
:1001E0006FF05FFF130101FC232011002322A10007
:1001F0002324B1002326C1002328D100232AE100B3
:10020000232CF100232E010123201103232251026C
:1002100023246102232671022328C103232AD10348
:10022000232CE103232EF103F322203413032000B7
:10023000638862021303B000638862001303300016
:10024000638862006F00C002EF0000346F0040035B
:1002500017E5000013050547EF2040596F004002E5
:1002600017E5000013050541EF2040586F004001DD
:1002700017E5000013052547EF2040576F004002A7
:10028000F322103403830200130530003373A300FC
:100290006314A3009382220093822200739012348D
:1002A0008320010003254100832581000326C1002E
:1002B0008326010103274101832781010328C1010E
:1002C0008328010283224102032381028323C10286
:1002D000032E0103832E4103032F8103832FC103C8
:1002E0001301010473002030730020303305A04057
:1002F00023A4A1C81305F0FF6780000017E70000E2
:100300001307C74293075005B706001013071700DD
:1003100023A0F60083470700E39A07FE67800000EA
:100320009307800523A4F1C81305F0FF6780000040
:100330009307800523A4F1C81305F0FF6780000030
:100340009307800523A4F1C81305F0FF6780000020
:100350009307800523A4F1C81305F0FF6780000010
:100360009307800523A4F1C81305F0FF6780000000
:100370001305F0FF678000009307C00023A4F1C8B5
:100380001305F0FF67800000B707048023A0A700D3
:10039000730050106F0000009307800523A4F1C87C
:1003A0001305F0FF678000009307B00023A4F1C895
:1003B0001305F0FF67800000B727000023A2F500B7
:1003C00013050000678000009307800523A4F1C88F
:1003D0001305F0FF678000009307800523A4F1C890
:1003E0001305F0FF67800000930780FA23A4F1C88B
:1003F00013050000678000001305100067800000EF
:10040000930780FA23A4F1C81305F0FF678000006A
:100410001305F5FF13351500678000009307600191
:1004200023A4F1C81305F0FF678000009307F001D3
:1004300023A4F1C81305F0FF678000001305000036
:10044000678000009307800523A4F1C81305F0FF1F
:10045000678000001305F0FF6780000093078005A8
:1004600023A4F1C81305F0FF678000001305000006
:1004700067800000B727000023A2F50013050000E5
:10048000678000001305F0FF678000001305F0FF90
:10049000678000009307200023A4F1C81305F0FF34
:1004A000678000009307800523A4F1C81305F0FFBF
:1004B000678000009307A00023A4F1C81305F0FF94
:1004C00067800000130101FF232021011389C1C7A8
:1004D0008327090023248100232291002326110071
:1004E0009384050013040600638A070213060400C0
:1004F0009385040017050200130545DEEF008063B5
:100500008320C100130504000324810083244100DB
:10051000032901001301010167800000B7C5010034
:10052000130630009385052017050200130505DB2F
:10053000EF000053930710002320F9006FF01FFB1A
:1005400023A6A1C613050000678000001387C1C65B
:10055000832707003385A7002320A700637C25009D
:1005600017070300130707AA6376E5001385070042
:10057000678000009307C00023A4F1C89307F0FF31
:100580001385070067800000130101FF23229100FB
:1005900023261100930710089384050063C21709EE
:1005A0009307F00263D61703938808FD930710059D
:1005B00063E4170317E700001307871993982800CF
:1005C000B388E80083A70800B387E70067800700C7
:1005D000930710016380F80A1307500597E700009E
:1005E0009387C714B70600109387170023A0E6006F
:1005F00003C70700E31A07FE8320C10083244100DC
:1006000013010101678000008320C100930780056A
:1006100023A4F1C883244100130101016780000075
:100620009307F040E3CA17FB9307F03F63D6170325
:10063000938808C09307F000E3E017FB17E700007A
:100640001307872593982800B388E80083A708003C
:10065000B387E700678007009307C00AE38EF8F8C6
:1006600063C6170393079009E388F8F89307900A85
:10067000E394F8F6930780FA23A4F1C86FF0DFF74C
:10068000B727000023A2F4006FF01FF79307600D57
:10069000E394F8F423A6A1C66FF01FF69307F001C8
:1006A00023A4F1C86FF05FF59307200023A4F1C8DD
:1006B0006FF09FF4B707048023A0A70073005010C9
:1006C0006F0000009307600123A4F1C86FF0DFF210
:1006D000232021011389C1C7832709002324810016
:1006E0001304060063860702130604000324810036
:1006F000032901008320C100938504008324410065
:1007000017050200130585BD130101016F0080422A
:10071000B7C50100130630009385052017050200B8
:100720001305C5BBEF00C033930710002320F90069
:100730006FF09FFB130500006780000013050000A9
:1007400067800000130500006780000013050000AB
:10075000678000001305000067800000130500009B
:10076000678000001305000067800000130500008B
:10077000678000001305000067800000130500007B
:10078000678000001305000067800000130500006B
:10079000678000001305000067800000130500005B
:1007A000678000001305000067800000130500004B
:1007B000678000001305000067800000130500003B
:1007C000678000001305000067800000130500002B
:1007D000678000001305000067800000130500001B
:1007E000678000001305000067800000130500000B
:1007F00067800000130500006780000013050000FB
:1008000067800000130500006780000013050000EA
:1008100067800000130500006780000013050000DA
:1008200067800000130500006780000013050000CA
:10083000678000008327C50063880720832805019F
:10084000638408200328050003469500032745011B
:100850008346480133E6C600A304C50093F60602AA
:100860006382061EB386E840130600011383060068
:100870006374D60013030001638AE81C3386E70023
:10088000034E060093051700130610002300C8014D
:10089000232AB5006370D61A3386B700834E06004C
:1008A00013062700130E20002300D801232AC500B9
:1008B0006372DE183386C700834E060013063700C6
:1008C000130E30002300D801232AC5006374DE16FE
:1008D0003386C700834E060013064700130E400000
:1008E0002300D801232AC5006376DE143386C700AF
:1008F000834E060013065700130E50002300D80144
:10090000232AC5006378DE123386C700834E0600B3
:1009100013066700130E60002300D801232AC500C8
:10092000637ADE103386C700834E06001306770015
:10093000130E70002300D801232AC500637CDE0E4D
:100940003386C700834E060013068700130E80000F
:100950002300D801232AC500637EDE0C3386C7003E
:10096000834E060013069700130E90002300D80153
:10097000232AC5006370DE0C3386C700834E060051
:100980001306A700130EA0002300D801232AC500D8
:100990006372DE0A3386C700834E06001306B70073
:1009A000130EB0002300D801232AC5006374DE08AB
:1009B0003386C700834E06001306C700130EC0001F
:1009C0002300D801232AC5006376DE063386C700DC
:1009D000834E06001306D700130ED0002300D80163
:1009E000232AC5006378DE043386C700834E0600E1
:1009F0001306E700130EE0002300D801232AC500E8
:100A0000637ADE023386C700834E06001306F700C2
:100A1000130EF0002300D801232AC500637CDE00FA
:100A2000B387C70083C70700130707012300F80037
:100A3000232AE50013070000638406001307F3FF71
:100A40003307B7006384E8006780000083474800ED
:100A50002328050093F7D70F2302F80067800000D2
:100A6000130101FE232A910083240500232C810019
:100A70002328210123263101232E11002382040083
:100A800023840400930770FC2384F400238804006B
:100A90002322B500130405003785D71713890500F5
:100AA0009309060093060000138605001305054010
:100AB00093050000EF10402EB70780006374F50225
:100AC0009357F500130700F82386E40093F7F70F18
:100AD000135575002382F4001375F50F2380A400CD
:100AE000238604002386340123043401A304040074
:100AF00097070000938747D4232224018320C10154
:100B00002328040023260400232A0400232E0400A3
:100B1000232C0400232204022320F4020324810155
:100B200083244101032901018329C100130101022A
:100B300067800000130101FF23260100638A050876
:100B400063080608032505003388C5001307100352
:100B500083474501232601000326C10093F6F70FC2
:100B6000636CC7008327C100938717002326F10019
:100B70008327C100E378F7FE93F70602E38A07FCB8
:100B8000232601008327C100636CF7008327C1007F
:100B9000938717002326F1008327C100E378F7FE2F
:100BA00083C705002300F500232601008327C10029
:100BB000636CF7008327C100938717002326F10099
:100BC0008327C100E378F7FE93851500E39205F9CA
:100BD00013010101678000006384050403C605005A
:100BE0006300060403270500130101FF9386150027
:100BF0008347470193F7F70FA307F1008347F100FD
:100C000093F70702E38607FE2300C70003C606002A
:100C100093861600E31E06FC1301010167800000A5
:100C200067800000630C0602638A05020327050043
:100C300097060000938646C02326B50083474700E9
:100C40002328C500232A05002320D50293E7270087
:100C50002302F700F32740F1638407006780000058
:100C60003727000C97F70100938747678326070013
:100C70003305F5401335150093071000B397A7000F
:100C8000B3E7D7002320F700678000008327050023
:100C9000034795008326050183C7470133E7E70033
:100CA000A304E50093F7F70F6398060093D7670056
:100CB00013F517006780000013050000678000002F
:100CC0001307050063800506630E0604032805006C
:100CD0008346950083474801B3E6D700A304D500B7
:100CE00093F7170063800704130500006F0080006E
:100CF0006308A60283460800B387A5001305150004
:100D00002380D700032807008346970083474801C4
:100D1000B3E6D700A304D70093F71700E39A07FCC4
:100D2000678000001305000067800000F32740F192
:100D300063960702B726000C17F701001307075A3E
:100D400003A606003307E54013371700930710008A
:100D5000B397E700B3E7C70023A0F600B707010089
:100D60009387F7FF638CF5000327050093F5F500E3
:100D700083474700B3E7B7002302F700678000000E
:100D8000638E05029307000C63EAC7020327050080
:100D9000232EB5008347870093F7F703B3E7C70017
:100DA00093F7F70F2304F7008347470093E71700F3
:100DB0002302F700F32740F16384070067800000F7
:100DC0003727000C97F701009387475183260700C8
:100DD0003305F5401335150093071000B397A700AE
:100DE000B3E7D7002320F700678000006384050283
:100DF000032705002320B50223260500834747006B
:100E00002328050093E727002302F700F32740F18A
:100E100063840700678000003727000C97F7010004
:100E20009387C74B832607003305F540133515001C
:100E300093071000B397A700B3E7D7002320F7006C
:100E40006780000063800502032705002322B502A6
:100E50008347470093E787002302F700F32740F119
:100E600063840700678000003727000C97F70100B4
:100E70009387C746832607003305F54013351500D1
:100E800093071000B397A700B3E7D7002320F7001C
:100E90006780000063880512630606128327050039
:100EA0008346950003C74701B366D700A304D50066
:100EB00013770702630807101307000113050600E4
:100EC0006374C7001305000183C6050013071000F3
:100ED0002380D700637AC70E83C61500130720004E
:100EE0002380D7006372C70E83C625001307300026
:100EF0002380D700637AC70C83C6350013074000F0
:100F00002380D7006372C70C83C6450013075000C7
:100F10002380D700637AC70A83C655001307600091
:100F20002380D7006372C70A83C665001307700069
:100F30002380D700637AC70883C675001307800033
:100F40002380D7006372C70883C68500130790000B
:100F50002380D700637AC70683C695001307A000D5
:100F60002380D7006372C70683C6A5001307B000AD
:100F70002380D700637AC70483C6B5001307C00077
:100F80002380D7006372C70483C6C5001307D0004F
:100F90002380D700637AC70283C6D5001307E00019
:100FA0002380D7006372C70283C6E5001307F000F1
:100FB0002380D700637AC70003C7F5002380E700CA
:100FC000678000001305000067800000832705008C
:100FD0000347950083C74701A304050033E5E700F5
:100FE0001375E509678000008327050003C58701A5
:100FF00067800000032705008347950003474701EA
:10100000B367F700A304F5001375070667800000B7
:10101000032705008347C70093E707042306F7006B
:1010200067800000032705008347C70093F7F70B8D
:101030002306F70067800000130101F9930E0500F5
:1010400037FFFFFF93060000232A6105130E0600F9
:1010500023268106232491062322210723203107FA
:10106000232E4105232C51052328710523268105B4
:10107000232491052322A1052320B1051305000097
:10108000938F6E01170B0200130B8BBF130F0F7999
:1010900013860E0093880500138706009307070048
:1010A0003309E600931E4500130707033383FF004F
:1010B0001304090093A60E63B385EE0117E900003F
:1010C0001309898197E900009389098593870E00A8
:1010D000639406009387050093870724B304FB00FD
:1010E0008386090083470400838D1900034A140096
:1010F000B387D7028346A401038D29008382390078
:101100002320D10083867900038C4900838B59000A
:101110002324D1008346B401330ABA03838A6900C9
:101120002322D1008386890083432400834C34002A
:101130002326D100838699000348840183459401C6
:10114000232AD10083461403834D0403B3037D0295
:101150002328D1008386A900130949009389090136
:10116000232ED10083462403232CD1008386B9FF8C
:10117000B38292032322D10283463403034D8404B5
:101180002320D1028386C9FF2324D1028386D9FF7D
:10119000330888032328D102834694042326D102EE
:1011A0008326C9FFB387D7008386E9FFB38575031C
:1011B000B3874701232CD1028346A404B387770069
:1011C000B3875700232AD1028386F9FFB38707012B
:1011D00003284100232ED10283260100B387B700E4
:1011E00083258100B3865603034AB404B305B802CD
:1011F000B387D7008326C10003288101B38DDD02A8
:10120000B387B7008326410183250101B386D50248
:101210008325C101B387B701B305B802B387D700EF
:101220000328010283264102B306D802B387B70020
:101230008325810203284103330DBD02B387D70004
:101240008325C10283260103B385D502B387A70195
:1012500083268103B387B7008325C103B306D80271
:10126000330ABA02B387D700B387470193C6F7FFA3
:1012700093D6F641B3F7D70093D787409306F00F84
:1012800063D4F6009307F00F2380F40097D7000093
:101290009387876893841400E39427E5130424005C
:1012A000938E0E01E31883E0930700211305B50028
:1012B000E316F7DEB7F2FFFF138708009303000081
:1012C000130300009308000097CF0100938F8F1045
:1012D000138F01F317DA0000130A0A7A930EF062F3
:1012E000938202799309F00F13098000931453003D
:1012F00013840300130600009317460097D50000DF
:1013000093858571B30A8B00338D9700930C001978
:101310002320710083A30500938D0CE7130C0D00AF
:1013200013080C0063D48E0133085C009307082473
:10133000B307FB003385BF0133080F0183C60700E5
:10134000830B05009387170013051500B3867603FA
:10135000B383D300E314F8FE938D0D05130C0C0B2F
:10136000E390BCFD93C7F3FF93D7F741B3F7F300C6
:1013700093D7874063D4F9009307F00F2380FA16C0
:1013800093854500938A1A00938C0C19E314BAF8DC
:10139000130626008323010013048401E31E26F5AF
:1013A000938828001303B30093830306E390C8F4E3
:1013B000938E01F897D600009386066C97E800009C
:1013C000938848F197E300009383839013880E007D
:1013D00093020018930FF00F83A7060097050200F1
:1013E000938505A613060000138505FA3383C8000C
:1013F000034F050003040300130515001303130036
:10140000330F8F02B387E701E394A5FE13060606A8
:1014100093850506E31A56FC13C6F7FF1356F641EB
:10142000B3F7C70093D7874063D4FF009307F00F4B
:101430002300F800938646001308180093880818C4
:10144000E39CD3F81383610197E600009386C68A74
:1014500017E600001306C68713050300938F0600E6
:10146000130FF00F832706001388060093850E00E4
:1014700083C805008302080093851500130818002F
:10148000B3885802B3871701E314B3FE93D7B7406C
:101490006358FF129307F00F2300F5001306460070
:1014A0001305150093866609E39ECFFA83066B3712
:1014B00003067B379307100063C6C6001386060039
:1014C0009307000083068B37634ED6089306060009
:1014D00003069B3763CEC608138606008306AB3728
:1014E000634ED608930606000306BB3763CEC608D4
:1014F000138606008306CB37634ED6089306060094
:101500000306DB3763CEC608138606008306EB3777
:10151000634ED608930606000306FB3763CEC60863
:10152000138606002300CE000324C1062320F70003
:10153000832481060329410683290106032AC10564
:10154000832A8105032B4105832B0105032CC1044C
:10155000832C8104032D4104832D01041301010711
:101560006780000003069B3793072000E3D6C6F68A
:101570008306AB3793073000E356D6F60306BB3736
:1015800093074000E3D6C6F68306CB379307500097
:10159000E356D6F60306DB3793076000E3D6C6F6BC
:1015A0008306EB3793077000E356D6F60306FB3746
:1015B00093078000E3D6C6F6930790006FF09FF67E
:1015C00093C5F7FF93D5F541B3F7B7006FF0DFECA4
:1015D000130101FD23229102938401C803A3040097
:1015E000232E3101232C4101232A5101232861019B
:1015F00023261102232481022320210393082300A0
:1016000013081025130B0500938A0500130A060022
:1016100093890600636C181D17F80100130888CE23
:1016200033086800034908000344180023A014018C
:1016300013080005631A09011304B4FC1374F40FB2
:101640009306100063FA860217E501001305453280
:10165000032481028320C102832441020329010261
:101660008329C101032A8101832A4101032B01013E
:10167000130101036F10801703A6040093061025C1
:101680001306B60063E0C61A23A0C40093068001C7
:101690006316DA0A63944A0B83A604001306102526
:1016A0003304DB00636A860E6386090297F5010046
:1016B000938545C513060B00B385D5001385090036
:1016C0002326F1002324E100EF10806C8327C10062
:1016D0000327810023A0840083A60400131627009B
:1016E000930510253304D60063E68506638C070056
:1016F00097F50100938505C1B385D50013850700D3
:10170000EF10006923A0840003A7040093071025AD
:10171000631CF7028320C102032481028324410257
:10172000032901028329C101032A8101832A41017E
:10173000032B0101130101036780000017E501007D
:10174000130585246FF0DFF017E5010013058530E0
:101750006FF01FF0930610251306040097E50100B3
:101760009385453117E501001305C51E2324E100CB
:10177000EF001076032781009307F0FFE306F7F8E8
:10178000130607009305F0FF17E501001305452731
:10179000EF0010746FF05FF7930610251306040036
:1017A00097E501009385052D17E501001305851ABE
:1017B0002326F1002324E100EF0090719306F0FF4F
:1017C000032781008327C100E308DBF013060B0029
:1017D0009305F0FF17E501001305C51DEF00506FDD
:1017E0008327C100032781006FF01FEF93061025A8
:1017F0001386080097E501009385C52717E50100CA
:10180000130545152326F1002324E100EF00506C59
:101810008327C1000327810013090000130400007F
:101820006FF01FE19306102597E50100938585244D
:1018300017E50100130505122326F1002324E1001A
:10184000EF0010698327C100032781006FF01FE4B8
:101850009306050093870500130710001306800107
:1018600093058001130500246FF09FD6130101FF3B
:10187000232481001304060023229100138606000E
:10188000938405009305040023261100EFF0CFFA9E
:1018900083A704001305000063C8070003250400A4
:1018A0003305F540133515008320C1000324810062
:1018B0008324410013010101678000001308000028
:1018C00063C6051263DC0600B337C000B306D04020
:1018D0001348F8FFB386F6403306C040930806006D
:1018E0001307050013830500639A060E63F4C516FB
:1018F000B70701006364F622B70700019306800171
:101900006374F60093060001B7070280335ED600C9
:10191000938707B0B387C70183C70700130E000280
:10192000B387D700B306FE40630CFE003393D500A7
:10193000B357F500B318D60033E367003317D5006B
:1019400013D608013355C3029396080193D60601B6
:10195000935707013373C302B385A6021313030120
:10196000B3E7670063FCB700B387F8001303F5FF24
:1019700063E4170163E6B74013050300B387B7407C
:10198000B3D5C7021317070113570701B3F7C702EF
:10199000B386B602939707013367F700637ED700DB
:1019A0003387E8009387F5FF636617019385E5FFAA
:1019B0006364D70093850700131505013365B500EF
:1019C00093050000630A0800B337A000B305B040D8
:1019D000B385F5403305A0406780000063F4D5026D
:1019E00093050000130500006FF0DFFDB337A00082
:1019F000B305B040B385F5403305A0401308F0FFB0
:101A00006FF05FECB707010063E8F61EB70700014F
:101A10009308800163F4F60093080001B707028081
:101A200033D71601938707B0B387E70003C70700D2
:101A30009307000233071701B388E7406396E71C5A
:101A400063E4B6303335C500133515009305000047
:101A50006FF05FF7630C060CB7070100637CF62C90
:101A6000133306101333130013133300B3566600F9
:101A7000B7070280938707B0B387D70083C60700F4
:101A800093070002B3866600B38ED7406394D70CE9
:101A9000B386C540135306011316060113560601FB
:101AA0009305100033D5660293570701B3F666021B
:101AB000330EC50293960601B3E7D70063FCC70156
:101AC000B387F8009306F5FF63E4170163E4C72BBF
:101AD00013850600B387C741B3D667021317070102
:101AE00013570701B3F767023386C60293970701BE
:101AF0003367F700637EC7003387E8009387F6FFFC
:101B0000636617019386E6FF6364C7009386070048
:101B1000131505013365D5006FF0DFEA9336061023
:101B200093B61600939636006FF01FDEB70702805B
:101B300093060000938707B0B387D70083C60700DA
:101B40001303000093070002B3866600B38ED740EC
:101B5000E380D7F4B318D60133DED50013D30801E0
:101B6000B3576E021396080113560601B356D500FB
:101B70003317D501B395D501B3E6B60093D5060169
:101B8000337E6E023305F602131E0E01B3E5C50166
:101B900063FEA500B385B800138EF7FF63E4151D3F
:101BA00063F2A51C9387E7FFB3851501B385A540B4
:101BB00033D565029396060193D60601B3F5650207
:101BC000330EA60293950501B3E6B60063FEC60187
:101BD000B386D8009305F5FF63EE161763FCC617AE
:101BE0001305E5FFB386160193950701B386C64139
:101BF000B3E5A5006FF01FEB93B8061093B818007B
:101C0000939838006FF09FE1B35EE600B39616013B
:101C1000B3EEDE0033D3E50013DF0E01B357E30369
:101C2000139E0E01B3951501135E0E013357E500A7
:101C30003367B70093560701331616013373E30376
:101C4000B305FE0213130301B3E6660063FEB6009C
:101C5000B386DE001383F7FF63EAD61163F8B6108C
:101C60009387E7FFB386D601B386B640B3D5E603C4
:101C70001317070113570701B3F6E6033303BE0238
:101C8000939606013367D700637E67003387EE00C3
:101C90009386F5FF6364D70D6372670C9385E5FF48
:101CA0003307D70193970701370F0100B3E7B70058
:101CB0009306FFFFB3F5D70013DE0701B376D60016
:101CC00013560601B38ED50233076740B306DE0212
:101CD00013D30E01B385C502B385D500B305B30098
:101CE000330ECE0263F4D500330EEE0193D6050118
:101CF000B386C601636AD7026308D700138507005D
:101D0000930500006FF01FCCB70601009386F6FF25
:101D100033F7D50013170701B3FEDE0033151501A5
:101D20003307D701E37CE5FC1385F7FF930500003B
:101D30006FF05FC9B7070001637AF6049356060196
:101D4000130300016FF0DFD29305000013051000AC
:101D50006FF05FC7138505006FF01FE993850600DC
:101D60006FF05FF493070E006FF05FE493070300DA
:101D70006FF09FEF1305E5FFB38717016FF09FD555
:101D80001305E5FFB38717016FF05FBF9356860118
:101D9000130380016FF0DFCD1308060093080500E0
:101DA000138705006390060E63FEC512B707010096
:101DB000636EF61EB7070001930680016374F60098
:101DC00093060001B70702803353D600938707B00C
:101DD000B387670083C7070013030002B387D700E8
:101DE000B306F340630CF3003397D500B357F50007
:101DF0003318D60033E7E700B318D50013560801AF
:101E00003355C7029316080193D6060193D70801EC
:101E10003377C702B385A60213170701B3E7E700BC
:101E200063FCB700B307F8001307F5FF63E407018D
:101E300063E0B73E13050700B387B74033D7C70247
:101E40009398080193D80801B3F7C702B386E60256
:101E500093970701B3E8F80063FED800B3081801B0
:101E60009307F7FF63E608011307E7FF63E4D80071
:101E700013870700131505013365E500930500007E
:101E80006780000063F8D50093050000130500008B
:101E900067800000B707010063E8F61EB70700017E
:101EA0001308800163F4F60013080001B7070280ED
:101EB00033D70601938707B0B387E70003C707004E
:101EC00093070002330707013388E7406396E71C56
:101ED00063E4B6303335C5001335150093050000B3
:101EE00067800000630C060CB7070100637CF62CCA
:101EF000133706101337170013173700B356E600D1
:101F0000B7070280938707B0B387D70083C707005E
:101F100093060002B387E700B38EF6406394F60C95
:101F2000B387C540935606011316060113560601E2
:101F30009305100033D5D70213D70801B3F7D702A2
:101F40003303C50293970701B367F70063FC67008B
:101F5000B307F8001307F5FF63E4070163E4672A9A
:101F600013050700B387674033D7D702939808015A
:101F700093D80801B3F7D7023306C7029397070136
:101F8000B3E8F80063FEC800B30818019307F7FF31
:101F900063E608011307E7FF63E4C800138707003F
:101FA000131505013365E5006780000093360610C0
:101FB00093B61600939636006FF0DFE0B707028005
:101FC00093060000938707B0B387D70083C7070045
:101FD0001307000093060002B387E700B38EF640B4
:101FE000E380F6F43318D60133D3F5009356080195
:101FF000335ED30213160801B395D50113560601BB
:10200000B357F500B3E7B70013D70701B318D501ED
:102010003373D302B305C603131303013367670099
:10202000637EB7003307E8001305FEFF6364071DF6
:102030006372B71C130EEEFF330707013307B74077
:102040003355D7029397070193D707013377D70208
:102050003303A60213170701B3E7E70063FE670027
:10206000B307F8001307F5FF63EE071763FC671665
:102070001305E5FFB387070193150E01B38767408A
:10208000B3E5A5006FF01FEB13B806101338180066
:10209000131838006FF09FE1335EE600B396060137
:1020A000336EDE00B3D8E500935E0E01B3D7D803DC
:1020B00013130E01B3950501135303013357E500C4
:1020C0003367B7009356070133160601B3F8D803F8
:1020D000B305F30293980801B3E6160163FEB60058
:1020E000B306DE009388F7FF63EAC61163F8B61003
:1020F0009387E7FFB386C601B386B640B3D5D60350
:102100001317070113570701B3F6D603B308B30239
:10211000939606013367D700637E17013307EE00FD
:102120009386F5FF6364C70D6372170D9385E5FF12
:102130003307C70193970701B70E0100B3E7B70054
:102140009386FEFFB3F5D70013D30701B376D6000D
:1021500013560601338ED50233071741B306D30257
:1021600093580E01B385C502B385D500B385B80079
:102170003303C30263F4D5003303D30193D60501BF
:10218000B3866600636AD7026308D7001385070029
:102190009305000067800000B70601009386F6FFF4
:1021A00033F7D50013170701337EDE003315050121
:1021B0003307C701E37CE5FC1385F7FF93050000B7
:1021C00067800000B7070001637AF60493560601A2
:1021D000130700016FF0DFD2930500001305100014
:1021E00067800000130507006FF01FE99385060064
:1021F0006FF05FF4130E05006FF05FE49387080043
:102200006FF09FEF1305E5FFB38707016FF09FD5D0
:102210001305E5FFB38707016FF01FC293568601D0
:10222000130780016FF0DFCD9305050093060000D2
:1022300013060000130500006F009058130101FF02
:1022400093050000232481002326110013040500B8
:10225000EF00906083A741C863840700E780070010
:1022600013050400EFE04F921305000067800000A3
:1022700037060280B7750080370502801306465581
:102280009385C5E6130505566F004035130101FF20
:102290008325450023248100232291002326110059
:1022A000138401519304050063848500EF40103CC2
:1022B00083A58400930784066386F50013850400D4
:1022C000EF40D03A83A5C4001304040D638E85004B
:1022D000032481008320C10013850400832441006E
:1022E000130101016F4090388320C1000324810055
:1022F00083244100130101016780000013050000E1
:1023000067800000130101FE232C8100B7270080A5
:102310001384015193870727232E1100232A91004C
:1023200023282101232631012324410123A2F1C8BE
:102330001306800093074000930500001305C405B1
:102340002326F40023200400232204002324040075
:102350002322040623280400232A0400232C04003B
:10236000EF005015B7070100372A0080B739008009
:1023700037390080B7340080130A8A7F9389C98572
:102380001309498E9384C4959387970013068000A0
:10239000930500001305440C232044032322340337
:1023A0002324240323269402232AF406232E8400C4
:1023B0002324040623260406232804062326040CCB
:1023C000232C0406232E040623200408EF00900E7D
:1023D000B707020013078406938727011305C41269
:1023E00013068000930500002324440923263409A2
:1023F00023282409232A9408232EF40C2322E408FA
:102400002328040C232A040C232C040C232A041252
:102410002320040E2322040E2324040EEF0090092F
:102420009307040D2328440F232A340F232C240F51
:10243000232E940E8320C1012326F40E0324810150
:1024400083244101032901018329C100032A81005A
:10245000130101026780000083A741C8130101FE38
:1024600023263101232E1100232C8100232A9100E1
:1024700023282101930905006388070E370902808C
:10248000130949559304F0FF832749000324890069
:102490009387F7FF63D807006F00000813048406D2
:1024A000638C97060317C4009387F7FFE31807FEB2
:1024B000B707FFFF938717002326F40023220406A3
:1024C00023200400232404002322040023280400E2
:1024D000232A0400232C0400130680009305000027
:1024E0001305C405EF00007D23280402232A0402FB
:1024F00023220404232404048320C10113050400BF
:102500000324810183244101032901018329C1009E
:102510001301010267800000032409006306040020
:10252000130904006FF05FF69305C01A13850900C4
:10253000EF10000A13040500630C05021305C50023
:1025400093074000232004002322F4002324A40046
:102550001306001A93050000EF00C07523208900C0
:10256000130904006FF05FF2EFF0DFD96FF01FF195
:10257000232009009307C00023A0F9006FF0DFF7C4
:1025800083274503638407006780000003A741C8D1
:10259000B72700809387C728232AF502E31607FE92
:1025A0006FF05FD66780000067800000370602800A
:1025B000B725008013064655938585261305000030
:1025C0006F00C00137060280B7250080130646550C
:1025D0009385C52F130500006F004000130101FD16
:1025E00023202103232E3101232C4101232A5101D1
:1025F000232861012326710123261102232481024D
:1026000023229102130B0500938B0500930A060009
:10261000130A0000930910001309F0FF83A44A0075
:1026200003A48A009384F4FF63C804028357C400A0
:1026300063FEF9008317E4009305040013050B0003
:1026400063862701E7800B00336AAA009384F4FFB6
:1026500013048406E39C24FD83AA0A00E3900AFC89
:102660008320C10203248102832441020329010241
:102670008329C101832A4101032B0101832BC1005E
:1026800013050A00032A810113010103678000007A
:10269000130101FC2324C1022326D1022328E102D5
:1026A000232AF102232C0103232E11031386050094
:1026B0008325850093068102232E11002326D10055
:1026C000EF10006D8320C101130101046780000039
:1026D00003A301C7130101FC2324C1022326D10255
:1026E0002322B1022328E102232AF102232C010331
:1026F000232E110383258300930641021306050050
:1027000013050300232E11002326D100EF1040688B
:102710008320C1011301010467800000130101FC43
:10272000232C81021304050013850500232A91023E
:10273000232E110293840500EF00C07FB7070280AB
:102740009387879F2324F102930710002326F10229
:10275000032744039307010293061500232AF1007F
:1027600093072000232091022322A102232ED100CF
:10277000232CF10083258400630007068397C5009E
:10278000139727016342070203A74506B7E6FFFF39
:102790009386F6FF37260000B3E7C7003377D700EC
:1027A0002396F50023A2E506130641011305040054
:1027B000EF4010308320C10303248103133515003B
:1027C0003305A0401375B500832441031305F5FFBD
:1027D0001301010467800000130504002326B100E3
:1027E000EFF01FDA8325C1006FF05FF99305050054
:1027F00003A501C76FF09FF2130101FF232481009D
:10280000138405008395E50023261100EF00002EB8
:1028100063400502832704058320C100B387A70016
:102820002328F404032481001301010167800000C0
:102830008357C40037F7FFFF1307F7FFB3F7E7002D
:102840008320C1002316F400032481001301010139
:102850006780000013050000678000008397C500B3
:10286000130101FE232C8100232A9100232821013A
:1028700023263101232E110013F7071013840500BE
:1028800093040500130906009389060063100704EA
:1028900037F7FFFF1307F7FFB3F7E7008315E400EF
:1028A0002316F400032481018320C10193860900CB
:1028B000130609008329C1000329010113850400BF
:1028C00083244101130101026F00C0288395E500B4
:1028D0009306200013060000EF00C01A8317C400FF
:1028E0006FF01FFB130101FF2324810013840500F7
:1028F0008395E50023261100EF00C0189307F0FF31
:102900006308F5028357C400371700008320C10015
:10291000B3E7E7009397070193D707412328A4045F
:102920002316F400032481001301010167800000D5
:102930008357C40037F7FFFF1307F7FFB3F7E7002C
:102940009397070193D707418320C1002316F40012
:102950000324810013010101678000008395E500D5
:102960006F004000130101FF232481002322910006
:1029700013040500138505002326110023A401C8B4
:10298000EFD01F9F9307F0FF630CF5008320C10079
:1029900003248100832441001301010167800000AA
:1029A00083A781C8E38407FE8320C1002320F400AD
:1029B000032481008324410013010101678000008A
:1029C00083A701C7638EA70A83254504130101FE6F
:1029D000232A9100232E110093040500638C050423
:1029E0002328210123263101232C81001309000013
:1029F00093090008B387250103A40700630E0400B0
:102A0000930504000324040013850400EF00100C58
:102A1000E31804FE83A5440413094900E31C39FDAF
:102A200013850400EF00900A0324810103290101AA
:102A30008329C10083A584036386050013850400F0
:102A4000EF00D00883A5C404638605001385040045
:102A5000EF00D00783A74403638C07008320C101E4
:102A600013850400832441011301010267800700DC
:102A70008320C1018324410113010102678000000A
:102A800067800000130101FF1387050023248100E4
:102A90002322910093050600130405001386060007
:102AA000130507002326110023A401C8EFD01F99A6
:102AB0009307F0FF630CF5008320C100032481001D
:102AC00083244100130101016780000083A781C8AE
:102AD000E38407FE8320C1002320F4000324810047
:102AE000832441001301010167800000130101FFED
:102AF00013870500232481002322910093050600FB
:102B00001304050013860600130507002326110091
:102B100023A401C8EFD09F959307F0FF630CF50045
:102B20008320C1000324810083244100130101019B
:102B30006780000083A781C8E38407FE8320C1006B
:102B40002320F400032481008324410013010101A8
:102B500067800000130101FF138705002324810013
:102B60002322910093050600130405001386060036
:102B7000130507002326110023A401C8EFD09F945A
:102B80009307F0FF630CF5008320C100032481004C
:102B900083244100130101016780000083A781C8DD
:102BA000E38407FE8320C1002320F4000324810076
:102BB000832441001301010167800000130101FF1C
:102BC00023248100B70702803704028023202101DB
:102BD0009387872D1307842D23261100232291002C
:102BE0003389E7406382E702135929401304842D97
:102BF000930400008327040093841400130444000A
:102C0000E7800700E3E824FF37040280B70702806B
:102C10009387872D1307842D3389E7401359294063
:102C20006380E7021304842D9304000083270400CB
:102C30009384140013044400E7800700E3E824FFB2
:102C40008320C10003248100832441000329010063
:102C50001301010167800000130101FF232481009B
:102C6000B7070280370402809387872D1304842DD1
:102C70003304F4402322910023261100935424406E
:102C8000638004021304C4FF3304F40083270400A8
:102C90009384F4FF1304C4FFE7800700E39804FE65
:102CA0008320C1000324810083244100130101011A
:102CB000678000001303F00013070500637EC30262
:102CC0009377F7006390070A63920508937606FFEF
:102CD0001376F600B386E6002320B7002322B70060
:102CE0002324B7002326B70013070701E366D7FEA6
:102CF0006314060067800000B306C3409396260065
:102D000097020000B38656006780C6002307B7000D
:102D1000A306B7002306B700A305B7002305B70035
:102D2000A304B7002304B700A303B7002303B7002D
:102D3000A302B7002302B700A301B7002301B70025
:102D4000A300B7002300B7006780000093F5F50FDC
:102D500093968500B3E5D50093960501B3E5D500BC
:102D60006FF0DFF69396270097020000B3865600B7
:102D700093820000E78006FA93800200938707FFA2
:102D80003307F7403306F600E378C3F66FF0DFF35E
:102D9000B3C7A50093F73700B308C50063940706CF
:102DA0009307300063F0C7069377350013070500DB
:102DB000639A070613F6C8FFB306E64093070002BE
:102DC00063CED70893860500930707006378C70290
:102DD00003A80600938747009386460023AE07FFAB
:102DE000E3E8C7FE9307F6FFB387E74093F7C7FF13
:102DF000938747003307F700B385F5006368170131
:102E000067800000130705006378150583C7050078
:102E10001307170093851500A30FF7FEE398E8FE4C
:102E20006780000083C605001307170093773700FB
:102E3000A30FD7FE93851500E38E07F683C6050022
:102E40001307170093773700A30FD7FE938515005C
:102E5000E39A07FC6FF01FF667800000130101FF83
:102E6000232681001304000283A3050083A24500EA
:102E700083AF850003AFC50083AE050103AE4501F6
:102E800003A3850103A8C50183A605021307470212
:102E9000B307E640232E77FC232057FE2322F7FFBB
:102EA0002324E7FF2326D7FF2328C7FF232A67FE13
:102EB000232C07FF232ED7FE93854502E346F4FA21
:102EC00093860500930707006378C70203A80600EE
:102ED000938747009386460023AE07FFE3E8C7FECB
:102EE0009307F6FFB387E74093F7C7FF9387470041
:102EF0003307F700B385F500636817010324C100A9
:102F0000130101016780000083C705001307170044
:102F100093851500A30FF7FEE382E8FE83C7050043
:102F20001307170093851500A30FF7FEE39EE8FC37
:102F30006FF0DFFC9377350013070500639C0704EF
:102F4000B7867F7F9386F6F79305F0FF0326070089
:102F500013074700B377D600B387D700B3E7C7009E
:102F6000B3E7D700E384B7FE8346C7FFB307A740A4
:102F7000638406048346D7FF638C06020345E7FF9C
:102F80003335A0003305F5001305E5FF6780000029
:102F9000E38806FA83470700130717009376370084
:102FA000E39807FE3307A7401305F7FF678000008B
:102FB0001385D7FF678000001385C7FF6780000077
:102FC00083A7C1C8638C070403A747001308F00157
:102FD0006340E808131827006306050233830701DE
:102FE0002324C30883A88718130610003316E600AD
:102FF000B3E8C80023A417192324D3109306200094
:103000006306D5021307170023A2E700B387070161
:1030100023A4B700130500006780000013888164B3
:1030200023A601C9938781646FF01FFA83A6C7188E
:103030001307170023A2E700B3E6C60023A6D7189C
:10304000B387070123A4B7001305000067800000C1
:103050001305F0FF67800000130101FD232C4101DF
:103060002320210303A9C1C8232611026308090AEA
:10307000232E3101232A51012328610123267101C6
:10308000232481022322910223248101130B0500B2
:10309000938B05009309F0FF930A100083244900E5
:1030A0001384F4FF634E040493942400B304990042
:1030B00063900B088327490083A644009387F7FF9A
:1030C000638C870A23A2040063860602832789187B
:1030D00033978A00032C4900B377F70063960706FD
:1030E000E78006000327490083A7C1C8631087094A
:1030F000639E27071304F4FF9384C4FFE31A34FB91
:1031000003248102832441028329C101832A4101CE
:10311000032B0101832BC100032C81008320C102FA
:1031200003290102032A81011301010367800000C2
:1031300083A74410E38077F91304F4FF9384C4FF5A
:10314000E31834FF6FF0DFFB8327C91883A5440819
:103150003377F7006316070213050B00E7800600BC
:103160000327490083A7C1C8E30487F9E38A07F866
:10317000138907006FF09FF2232289006FF0DFF4BC
:1031800013850500E78006006FF0DFF5130101FEEF
:1031900023263101B7090280232C8100232A9100C4
:1031A0002328210123244101232E1100138A050025
:1031B0001309050093890968EF00103D03A78900F2
:1031C000B71700009387F7FE8324470037170000E6
:1031D00093F4C4FF3384F400330444411354C40013
:1031E0001304F4FF1314C400634EE40093050000BD
:1031F00013050900EF40D02883A78900B387970003
:103200006308F50213050900EF0050388320C1015F
:103210000324810183244101032901018329C10081
:10322000032A8100130500001301010267800000DA
:10323000B305804013050900EF4090249307F0FF89
:10324000630AF504B71702809387477B03A707003B
:1032500083A68900B384844093E414003307874035
:103260001305090023A2960023A0E700EF00103207
:103270008320C10103248101832441010329010129
:103280008329C100032A81001305100013010102E4
:10329000678000009305000013050900EF40501EF1
:1032A00003A789009306F000B307E540E3DCF6F4DA
:1032B00083A641C793E717002322F7003305D540C3
:1032C000B716028023AAA67A6FF0DFF3638205188F
:1032D000130101FF232481002322910013840500A0
:1032E0009304050023261100EF00102A0325C4FFD4
:1032F000130784FFB70502809377E5FF3306F700D5
:10330000938505688326460003A8850093F6C6FFCB
:103310006302C81A2322D600137515003308D6009D
:103320006310050A032384FF032848003705028041
:10333000330767408328870013058568B3876700D4
:10334000137818006382A8140323C70023A668001B
:10335000232413016306081A93E617002322D700DB
:103360002320F6009306F01F63ECF60693F687FF22
:103370009386860003A54500B386D50003A6060004
:1033800013D8570093071000B3970701B3E7A700BE
:10339000138586FF2326A7002324C70023A2F50058
:1033A00023A0E6002326E600032481008320C10039
:1033B0001385040083244100130101016F00101DD7
:1033C00003254800137515006306050893E61700EA
:1033D000232ED4FE2320F6009306F01FE3F8F6F820
:1033E00093D69700130640006360D61293D6670009
:1033F0001385960313868603131535003385A500C0
:1034000083260500130585FF6318D5006F0040155E
:1034100083A686006308D50003A646001376C6FF80
:10342000E3E8C7FE03A5C6002326A7002324D70090
:10343000032481002324E5008320C10013850400B8
:103440008324410023A6E600130101016F0010143C
:103450006780000037050280B387D70013058568B1
:1034600083268600638CA60C0328C60013E517008C
:103470003306F70023A606012324D8002322A70041
:103480002320F6006FF01FEE631C081283258600D0
:103490000326C600B386F60093E7160023A6C500F0
:1034A0002324B6002322F7003307D7002320D700B8
:1034B0006FF09FEF13751500B386D70063100502F8
:1034C000032584FF3307A7408327C700032687000F
:1034D000B386A6002326F60023A4C70013E6160031
:1034E00083A781C72322C70023A4E500E3EEF6EA01
:1034F00083A581C913850400EFF05FC96FF0DFEA8F
:10350000B387D7006FF0DFF5130640016370D60272
:10351000130640056364D60693D6C7001385F606E6
:103520001386E606131535006FF05FED1385C605AB
:103530001386B605131535006FF05FEC23AAE5007E
:1035400023A8E50093E617002326A7002324A7005D
:103550002322D7003307F7002320F7006FF0DFE4C2
:1035600003A845001356264093071000B397C700E1
:10357000B3E7070123A2F5006FF01FEB1306401518
:10358000636CD60093D6F7001385860713867607FB
:10359000131535006FF09FE613064055636CD60097
:1035A00093D627011385D6071386C6071315350052
:1035B0006FF0DFE41305803F1306E0076FF01FE4B0
:1035C00093E617002322D7002320F6006FF0DFDDFB
:1035D000130101FD232E3101232611022324810230
:1035E00023229102232021039387B5001307600152
:1035F000930905006362F7089307000163E4B720AD
:10360000EF00807893078001930520009304000168
:103610003709028013090968B307F90003A44700BA
:10362000138787FF6302E434832744008326C400A2
:103630000326840093F7C7FFB307F40003A74700EE
:103640002326D60023A4C60013671700138509009C
:1036500023A2E700EF008073130584008320C102DA
:103660000324810283244102032901028329C10129
:10367000130101036780000093F487FF63C40718F8
:1036800063E2B418EF0040709307701F63F8973E31
:1036900093D794006380071813074000636EF732D6
:1036A00093D7640093859703138887031396350097
:1036B00037090280130909683306C900032446004C
:1036C000130686FF630886021305F0006F004001B1
:1036D0008326C40063560728630ED60013840600B1
:1036E0008327440093F7C7FF33879740E352E5FEF3
:1036F000930508000324090193088900630E14252B
:10370000832744009306F00093F7C7FF3387974061
:1037100063CCE636232A19012328190163500734A4
:103720001307F01F032549006368F72413F787FF89
:10373000130787003307E9008326070013D65700D5
:1037400093071000B397C7003365F500930787FF11
:103750002326F4002324D4002322A9002320870059
:1037600023A6860093D72540130610003316F600D3
:10377000636AC50AB377A60063940702131616009E
:1037800093F5C5FFB377A60093854500639A0700BC
:1037900013161600B377A60093854500E38A07FE4B
:1037A0001308F00013933500330369001305030079
:1037B0008327C500138E05006302F52403A7470085
:1037C0001384070083A7C7001377C7FFB30697408A
:1037D0006342D824E3C206FE3307E4008326470091
:1037E000032684001385090093E616002322D700E0
:1037F0002326F60023A4C700EF00405913058400D8
:103800006FF0DFE59307C00023A0F9001305000067
:103810006FF0DFE413060020930500041308F003A3
:103820006FF01FE9032489002328610183274400E6
:1038300013FBC7FF63689B0033079B409307F000AF
:1038400063CAE70C23229101232A510103A741C730
:1038500083AA81C9232C4101232671019307F0FF1C
:10386000330A6401B38A54016306F73CB7170000BA
:103870009387F700B38AFA00B7F7FFFFB3FAFA00AD
:1038800093850A0013850900EF40803F9307F0FFFE
:10389000930B0500630AF54423248101636E4523DD
:1038A000138C817D83250C00B385BA002320BC00D6
:1038B000138705006316AA2A931745016392072A06
:1038C000832B8900B3075B0193E7170023A2FB005A
:1038D00083A641C963F4B60023AAB1C883A601C96F
:1038E00063F4B60023A8B1C8032C810013840B0035
:1038F00093F7C7FF3387974063EA97389307F00041
:1039000063D6E738032A8101832A4101832BC10052
:10391000832C410093E714002322F400B3049400A5
:1039200023249900136717001385090023A2E400DC
:10393000EF00C0458320C1021305840003248102E7
:10394000032B010183244102032901028329C101C0
:103950001301010367800000032549006FF09FE019
:10396000032684006FF05FCD03A4C7009385250074
:10397000E38287D86FF05FCB13D7970093064000A0
:1039800063F2E6149306400163E4E6321306C705CA
:103990009306B705131636003306C9000327060041
:1039A000130686FF6318E6006F004029032787008F
:1039B0006308E6008326470093F6C6FFE3E8D7FED8
:1039C0000326C7002326C4002324E4002324860002
:1039D000232687006FF01FD9130740016378F71083
:1039E000130740056364F72E93D7C4009385F70649
:1039F0001388E706139635006FF09FCB130E1E0059
:103A000093773E0013058500638007108327C50068
:103A10006FF09FDA0326840093E514002322B4009C
:103A20002326F60023A4C700B3049400232A990098
:103A30002328990093E7160023A6140123A4140158
:103A400023A2F4003307E400138509002320D700E4
:103A5000EF00C033130584006FF05FC0B307F400BC
:103A600003A74700138509001367170023A2E70087
:103A7000EF00C031130584006FF05FBE93D53400B2
:103A8000938784006FF0DFB893E614002322D400FC
:103A9000B3049400232A9900232899009366170001
:103AA00023A6140123A4140123A2D400B307F40015
:103AB0001385090023A0E700EF00402D13058400C3
:103AC0006FF0DFB913D767001306970393068703D8
:103AD000131636006FF05FEC630C24070324890093
:103AE000032C8100832744006FF09FE09385C70576
:103AF0001388B705139635006FF09FBB83278300AB
:103B00009385F5FF639E672693F73500130383FFC4
:103B1000E39607FE032749009347F6FFB3F7E70054
:103B20002322F90013161600E3EEC7CEE30C06CEEF
:103B30003377F600631A0700131616003377F60082
:103B4000130E4E00E30A07FE93050E006FF09FC5AB
:103B5000138C817D03270C003387EA002320EC00BF
:103B600083A641C79307F0FF6386F618B3874B41DE
:103B7000B387E7002320FC0093FC7B00638C0C0CD4
:103B8000B38B9B41B717000093878700938B8B0003
:103B9000B3859741B38A5B01B38555419395450140
:103BA00013DA450193050A0013850900EF40400D23
:103BB0009307F0FF6300F51833057541B30A45011B
:103BC00003270C002324790193E71A00B305EA00C8
:103BD0002320BC0023A2FB00E30C24CF9306F000BB
:103BE00063F0660B0327440093074BFF93F787FFAF
:103BF000137717003367F7002322E4001306500001
:103C00003307F4002322C7002324C70063E6F6002D
:103C100083A74B006FF0DFCB930584001385090069
:103C2000EFF0CFEA832B890083250C0083A74B009C
:103C30006FF01FCA938A0A016FF09FC493D6264083
:103C400093071000B397D7003365F5002322A9002E
:103C50006FF05FD7B3855B01B305B0409395450125
:103C600013DA450193050A0013850900EF4040016E
:103C70009307F0FFE312F5F4130A00006FF05FF40E
:103C8000032C81009307100023A2FB001385090079
:103C9000EF00C00F13050000032A8101832A4101B0
:103CA000032B0101832BC100832C41006FF01F9B6C
:103CB0009306400563E4E60413D7C7001306F7062E
:103CC0009306E706131636006FF01FCD1307401555
:103CD0006364F70493D7F400938587071388770705
:103CE000139635006FF0DF9C03248900832744007E
:103CF0006FF01FC023AA71C76FF01FE8930640152D
:103D000063E4E60413D7F7001306870793067707E3
:103D1000131636006FF05FC8130740556364F7044D
:103D200093D724019385D7071388C70713963500C7
:103D30006FF01F98938C8CFFB38A9A01B38A7A41F3
:103D4000130A00006FF0DFE79306405563E4E602D4
:103D500013D727011306D7079306C7071316360094
:103D60006FF09FC31306803F9305F0071308E00729
:103D70006FF01F941306803F9306E0076FF0DFC1DA
:103D8000832749006FF01FDA67800000678000001A
:103D9000130101ED2326111223229112232A51111E
:103DA00023267111938A0500930406002324D10071
:103DB000930B0500EF30D06B8327050013850700B8
:103DC0002322F102EFF00F972320A10263880B005A
:103DD00083A74B03639407006F1040738397CA0057
:103DE000139727016346070203A74A0637260000F8
:103DF000B7E6FFFFB3E7C7009386F6FF9397070187
:103E000093D707413377D7002396FA0023A2EA0617
:103E100013F787006302072E03A70A01630E072C1E
:103E200093F7A7011307A000638AE72EB707028064
:103E30002328611123248111130B010B938747C49D
:103E4000370C028023248112232C4111232EB10F21
:103E500023202113232E3111232291112320A1117C
:103E6000232E61072322010823200108232A0100B1
:103E7000232C0100232E010013040B002324010234
:103E800023280102232201002326F100130A000146
:103E9000130C8CDB23207101938D040083C70D006C
:103EA000638C071E93840D00130750026386E72A74
:103EB00083C7140093841400E39A07FE3389B44146
:103EC000638CB41D03274108832701082320B40114
:103ED0003307270193871700232224012322E108B7
:103EE0002320F1081307700013048400634EF726A3
:103EF0000327410083C70400330727012322E10081
:103F0000638C071893841400A30F01049309F0FF36
:103F1000930B0000130900009306800503CD0400F5
:103F2000938D140093070DFE63E6F6040327C1008A
:103F300093972700B387E70083A7070067800700F0
:103F4000930B000093070DFD1306900003CD0D00A9
:103F500013972B00B30B7701939B1B00B38B770157
:103F600093070DFD938D1D00E372F6FE93070DFE82
:103F7000E3FEF6FA63020D122304A109A30F010464
:103F80001307100093041000930C8108130F09000D
:103F90009309000023280100930F000093724F083B
:103FA0000329410863960200B387EB40E342F044E3
:103FB0008347F105638A0702832701089306F10509
:103FC0002320D400130919009306100093871700CB
:103FD0002322D400232221092320F1089306700014
:103FE0001304840063C0F61A638A0F028327010852
:103FF000930601062320D40013092900930620000C
:10400000938717002322D400232221092320F108BB
:104010009306700013048400E3CEF64E9307000865
:10402000E38AF208B3899940E34E301993770F1071
:1040300063940774832701083309990023209401AE
:104040009387170023229400232221092320F108BB
:104050009306700063CCF62013048400137F4F0096
:1040600063060F00B384EB40E342904E13830B00D2
:1040700063D4EB001303070083274100B387670075
:104080002322F100E31A092283C70D00232001082F
:1040900013040B00E39807E083274108832B0100FA
:1040A000638407006F10407583D7CA000324811210
:1040B0000329011293F707048329C111032A8111EF
:1040C000032B0111032C8110832C4110032D0110AF
:1040D000832DC10F638407006F10901D8320C112D0
:1040E0000325410083244112832A4111832BC110EF
:1040F000130101136780000093850A0013850B00EC
:10410000EF30006C630405006F10901A8397CA00AB
:104110001307A00093F7A701E39AE7D08397EA007B
:10412000E3C607D0832681008320C11213860400D2
:1041300093850A0083244112832A411113850B00C1
:10414000832BC110130101136F101038136909017B
:1041500093840D006FF09FDC3389B441E394B4D7AE
:1041600083C704006FF0DFD9032501001306C107E0
:1041700093850A00EF105054E31805F213040B0066
:104180006FF01FD7032501001306C10793850A00AE
:10419000232EE102232CE103232A51022326F103DB
:1041A000EF109051E31205F0032941080327C103E2
:1041B000032F810383224103832FC10213040B00C9
:1041C0006FF09FE283270108B7060280938606C43A
:1041D0002320D400130919009306100093871700B9
:1041E0002322D400232221092320F1089306700002
:1041F0001304840063D4F6006F108010630406007B
:104200006F1080458326410193771F00B3E7D700E5
:10421000E38607E483274102832601022320F4007A
:1042200083270108B38526012322D4009387170032
:104230002322B1082320F1089306700063D4F6000E
:104240006F10806413048400832641019387170054
:10425000232094013389B6002322D400232221098C
:104260002320F10893067000E3D8F6DE0325010051
:104270001306C10793850A002326E1022328E101E2
:10428000EF109043E31205E203294108032F0101D7
:104290000327C10213040B006FF05FDC93778900E2
:1042A000E39C0760832781009387770093F787FF5C
:1042B00003A7070093878700232CE10003A7C7FF0C
:1042C0002324F100232EE100832CC10103A7C1C1E7
:1042D0008326810183A701C293941C0093D4140008
:1042E00013850600938504001306070093860700D4
:1042F000EF90504C630405006F1000048326810189
:1043000003A7C1C183A701C21385060093850400DA
:104310001306070093860700EF80503B6344A0001C
:104320006F1080010327810193850C0013060000A4
:104330001305070093060000EF8050396354050011
:104340006F1040438346F1059307700463D4A701BF
:104350006F108041B70C0280938C0CC023280100A1
:10436000137FF9F71307300093043000930900001E
:104370006384060013071700937F2F00E3800FC2AA
:1043800013072700930F20006FF05FC18326810081
:104390009377090103A70600938646002324D100E2
:1043A000639207129376090493070700E390064E81
:1043B000634E07108346F10563C40904137FF9F7C0
:1043C000631E070213071000639E0920E314073CD5
:1043D00093741900930C0B00638204049307000389
:1043E000A307F10A930CF10A1387040063CC34038A
:1043F00023280100E39006F86FF01FF813090F005F
:1044000013079000E364F76C93870703A307F10A8F
:10441000130F090093041000930CF10A1387040092
:10442000E3D834FD13870900232801006FF09FFCB7
:104430008327810083AB0700938747002324F10083
:10444000E3D80BD0B30B70411369490093840D007E
:104450006FF0DFAC03CD0D009307A002938D1D001C
:104460006314FD006F10807D93070DFD9305900090
:10447000130700001306900093090000E3E4F5AA77
:1044800003CD0D0093192700B389E9009399190012
:104490003387F90093070DFD938D1D00E372F6FE3F
:1044A00093090700E35007A89309F0FF6FF09FA757
:1044B000832781001369090103A707009387470039
:1044C0002324F10093070700E35607EEB307E0400B
:1044D0009306D002130710006F00000A1369090841
:1044E00093840D006FF09FA31369090493840D005A
:1044F0006FF0DFA203278100A30F010493041000D3
:1045000083270700130747002324E1002304F10851
:1045100013071000930C81086FF05FA79307B00298
:10452000A30FF10493840D006FF05F9F13691900CE
:1045300093840D006FF09F9E8347F105E39A07C0B7
:1045400093070002A30FF10493840D006FF01F9DE9
:104550001369890093840D006FF05F9C032781002D
:104560001369090183270700130747002324E1008B
:104570001307100093060000A30FD10463C80900BD
:10458000137FF9F7E38207E413090F001306100005
:10459000E308C7E6130620006306C706930C0B006A
:1045A00013F7770013070703A38FECFE93D73700A9
:1045B00013860C00938CFCFFE39407FE937719009D
:1045C00063840706930700036300F7061306E6FFFC
:1045D000A38FFCFEB304CB40130F0900930C06001D
:1045E0006FF0DFE3930710006314F7006F10C03F14
:1045F0009307200013090F006304F7006F100021D8
:104600009307000003268102930C0B0013F7F700B9
:104610003307E6000347070093D74700938CFCFF5E
:104620002380EC00E39407FEB3049B41130F0900C1
:104630006FF0DFDE0327810013690901832707007C
:10464000130747002324E100130700006FF09FF2D7
:10465000832681001377090183A70600938646000D
:104660002324D100E31607F013770904E30207F0CF
:104670009397070193D70701130710006FF09FEF7F
:1046800083278100A30F010483AC07001388470030
:10469000E3800C322324010163D409006F1040072A
:1046A000138609009305000013850C00EF30003FCE
:1046B00003288100631405006F10803AB30495410C
:1046C0008346F10513C7F4FF1357F7412324010173
:1046D0002328010033F7E400130F090093090000B9
:1046E000E39A06C86FF05FC9832681003787000010
:1046F000130707832310E106138746002324E100F4
:1047000037070280130747C22324E10283A706006C
:104710001369290013072000130D80076FF09FE530
:10472000832681001377090183A70600938646003C
:104730002324D100E31A07F013770904E30607F0F6
:104740009397070193D70701130700006FF09FE2CB
:1047500093770901E384071483278100032741002D
:1047600083A7070023A0E7008327810093874700E2
:104770002324F1006FF08FF29307500663DAA73518
:10478000832681018327C1011306000013850600DB
:104790009385070093060000232AE1022326E10304
:1047A000EF80005A032FC1020327410363160566F9
:1047B00083270108B7060280938606C42320D4000D
:1047C0001309190093061000938717002322D400C1
:1047D000232221092320F10893067000130484008A
:1047E000E3C0F64C8327410683264101E3D8D7086E
:1047F000832741028326010213048400232CF4FE44
:10480000832701083309D900232ED4FE938717008C
:10481000232221092320F10893067000E3CCF60E31
:10482000832741019384F7FFE35A908293060001A6
:104830008327010863C496006F10003DB70602800D
:10484000938686DB2326E102032D01001307040073
:104850009309000113840400930C70002328E101E4
:10486000938406006F00C000130404FFE3D6894A56
:10487000130909019387170023209700232237018A
:10488000232221092320F10813078700E3DEFCFC23
:104890001306C10793850A0013050D00EF10C061D0
:1048A000E3140580032941088327010813070B003F
:1048B0006FF09FFBB387EB406356F0F69306000161
:1048C0000326010863C4F6006F10C01DB7060280FE
:1048D000938686DB232A9102930509009308000141
:1048E00013090700930F7000130704002326E10348
:1048F00013840700938406006F00C000130404FFB4
:1049000063DA8804938505011306160023209700B7
:10491000232217012322B1082320C108130787008F
:10492000E3DECFFC032501001306C10793850A00CF
:10493000EF108058631A05F693080001130404FF72
:10494000832541080326010813070B00930F70000D
:10495000E3CA88FA93860400032FC102832441032B
:1049600093070400130407001307090013890500C7
:104970003309F900130616002322F4002320D40083
:10498000232221092320C108930770001304840007
:1049900063DAC7E8032501001306C10793850A00FF
:1049A000232AE1022326E103EF100051631E05EEE6
:1049B0000329410803274103032FC10213040B00FD
:1049C0006FF04FE6B706028083270108938686DBE7
:1049D000635A3A0993060900930870001309070007
:1049E0002326E103130704001384090093090C0034
:1049F0006F00C000130404FF63588A049386060105
:104A00009387170023208701232247012322D108FF
:104A10002320F10813078700E3DEF8FC03250100DB
:104A20001306C10793850A00EF100049631E05E6CF
:104A3000130404FF832641088327010813070B0092
:104A400093087000E34C8AFA032FC1021386090011
:104A500093090400130407001307090013890600D3
:104A60009306060033093901938717002320D400E9
:104A700023223401232221092320F1089306700008
:104A80001304840063D4F6DA032501001306C1077A
:104A900093850A00232AE1022326E103EF10C04197
:104AA000631405E00329410803274103032FC102D2
:104AB00013040B006FF08FD7032501001306C10705
:104AC00093850A00EF10403F630005DC6FF0CFDDF7
:104AD00083240108832641019307100023209401B9
:104AE00013091900938414009309840063DAD74AE8
:104AF000930710002322F400232221092320910888
:104B00009307700063CC97748327010283264102C8
:104B1000938414003309F90023A2F90023A0D900DB
:104B2000232221092320910893077000938989008B
:104B300063C297768327C101832681011306000093
:104B40009385070083274101138506009306000023
:104B50002326E1022328E1011384F7FFEF80401EA2
:104B6000032F01010327C10263040548938C1C0035
:104B7000938414003309890023A0990123A289009A
:104B8000232221092320910893077000938989002B
:104B9000E3C29714832601039307C106938414008C
:104BA0003389260123A0F90023A2D9002322210959
:104BB00023209108930770001384890063D097CA5B
:104BC000032501001306C10793850A002326E1028D
:104BD0002328E101EF10402E631805CC032941087A
:104BE0000327C102032F010113040B006FF00FC74D
:104BF0009306000103260108E3D6F668B706028093
:104C0000938686DA232E910293050900930800010A
:104C10001309070093037000130704002326F10310
:104C2000232A5102232CE1031384070093840600F6
:104C30006F00C000130404FF63DA88049385050144
:104C40001306160023209700232217012322B10800
:104C50002320C10813078700E3DEC3FC03250100FE
:104C60001306C10793850A00EF100025631E05C2D5
:104C700093080001130404FF83254108032601085B
:104C800013070B0093037000E3CA88FA93860400AD
:104C9000832FC10283224103032F81038324C10395
:104CA0009307040013040700130709001389050084
:104CB0003309F900130616002322F4002320D40040
:104CC000232221092320C1089307700013048400C4
:104CD00063D0C7AE032501001306C10793850A0000
:104CE000232EE102232CE103232A51022326F10380
:104CF000EF10801C631A05BA032941080327C1037A
:104D0000032F810383224103832FC10213040B006D
:104D10006FF00FAA032501001306C10793850A004F
:104D2000232CE102232AE10323265102EF10C018AD
:104D3000631C05B60329410803278103032F4103A0
:104D40008322C10213040B006FF04FAD93060001E4
:104D500083270108E3D29654B7060280938686DA49
:104D6000138D040093090001930C70002328E100C7
:104D7000938406006F00C000130D0DFF63D6A905D4
:104D8000130909019387170023209400232234017B
:104D9000232221092320F10813048400E3DEFCFC14
:104DA000032501001306C10793850A00EF10C01008
:104DB000631C05AE130D0DFF03294108832701086D
:104DC00013040B00E3CEA9FB032701019386040023
:104DD00093040D0033099900938717002320D40012
:104DE00023229400232221092320F1089306700036
:104DF00063DEF6A6032501001306C10793850A00AA
:104E00002328E100EF10400B631005AA0329410895
:104E1000032701016FF08FA5032641066354C0BA32
:104E200083274101832601019389070063C8F62C7B
:104E30006356300383270108330939012320940185
:104E40009387170023223401232221092320F1080C
:104E50009306700013048400E3CEF61A93C7F9FF9B
:104E600093D7F741B3F9F90083270101B38937419B
:104E700063403037832641068327410163D6F628F5
:104E8000832741020326010213048400232CF4FE2D
:104E9000832701083309C900232EC4FE9387170016
:104EA000232221092320F10813067000E342F63083
:104EB0008327410103260101B386D740B389C74048
:104EC00063D4360193890600635A300383270101B6
:104ED0000326010833093901B38CFC0013061600C0
:104EE0002320940123223401232221092320C108F5
:104EF0009307700013048400E3C0C73213C6F9FFA0
:104F00001356F641B3F7C900B384F6406358909442
:104F10009306000183270108E3D8964EB706028066
:104F2000938686DB2326E102032D0100130704008C
:104F30009309000113840400930C70002328E101FD
:104F4000938406006F00C000130404FF63D6895CDD
:104F500013090901938717002320970023223701A3
:104F6000232221092320F10813078700E3DEFCFC3C
:104F70001306C10793850A0013050D00EF00D073D7
:104F800063140592032941088327010813070B00C6
:104F90006FF09FFB93040000930C0B006FF00FC8A1
:104FA00093761F00E39606B42322F40023222109FE
:104FB0002320910893077000E3DE97BC03250100CE
:104FC0001306C10793850A002326E1022328E10185
:104FD000EF00906E631A058C0329410883240108B1
:104FE0000327C102032F010193090B006FF09FBA41
:104FF0008326410193071000E3DED7B89307100121
:10500000E3DED73EB7060280938686DB93870900EE
:10501000930C000193090700130D7000130709009A
:105020002328E101138906006F00C000130404FF68
:1050300063DA8C70130707019384140023A02701FF
:1050400023A297012322E108232091089387870058
:10505000E35E9DFC032501001306C10793850A004A
:10506000EF009065630405006FF00F84032741088B
:105070008324010893070B006FF05FFB93771F00F9
:10508000639407006FE09FFD6FF08FF61317070121
:1050900013570741930707006FF00FC3937F09046D
:1050A000638C0FEA832781000327410083A7070051
:1050B0002390E7006FF04FEB0327810013050104F5
:1050C000832707009304470003A707002320E10478
:1050D00003A747002322E10403A787002324E10458
:1050E00083A7C7002326F104EF900012232CA10010
:1050F000232EB100232491006FF00F9D93890600A9
:10510000E34A30D36FF09FD593771F00E38207DA2D
:105110006FF01FD7032501001306C10793850A000E
:105120002326E1022328E101EF0010596304050062
:105130006FE09FF7032941080327C102032F0101F4
:1051400013040B006FF0CFEDB7070280938707C100
:105150002324F102832681001377090183A7060027
:10516000938646002324D100631A070013770904AD
:10517000630607009397070193D7070193761900F9
:1051800013072000638806BE638607BE93060003EC
:105190002300D106A300A107136929006FF08FBD7A
:1051A000B7070280938747C22324F1026FF09FFA6A
:1051B000930760009384090063E83769B70C0280A5
:1051C0001387040023240101938C8CC36FE01FDC40
:1051D0009306000183270108E3DC3625B706028029
:1051E00093050700938686DB130704001306090066
:1051F00013840900130D0001930470002326E103BA
:1052000013890600938905006F00C000130404FF92
:10521000635A8D5613060601938717002320270132
:105220002322A7012322C1082320F10813078700A6
:10523000E3DEF4FC032501001306C10793850A0091
:10524000EF009047630405006FE01FE60326410866
:105250008327010813070B006FF05FFB0325010094
:105260001306C10793850A002326E1022328E101E2
:10527000EF009044630405006FE01FE30329410839
:10528000832401080327C102032F010193090B00A6
:105290006FF09F87032501001306C10793850A005D
:1052A0002326E1022328E101EF00104163040500F9
:1052B0006FE09FDF03294108832401080327C1020F
:1052C000032F010193090B006FF0DF86930C0B0095
:1052D0001306A0001305900033F7C702938CFCFF60
:1052E00093850700130707032380EC00B3D7C70299
:1052F000E364B5FEB3049B41130F09006FF00F92F6
:10530000032501001306C10793850A002326E10245
:105310002328E101EF00503A630405006FE0DFD875
:1053200003264106032941080327C102032F010177
:1053300013040B006FE09FEC032881018327C10158
:1053400013060800130508009386070093850700DD
:10535000EF805046E31205021377FDFD9307F0FF3F
:105360002326E102136F09106388F96E9307700416
:105370006302F7688327C10193020000938407004A
:1053800063C0074E93076006138709009306300039
:105390006310FD4E03268101130881069307410621
:1053A0001305060093050500032501009308410736
:1053B00013860400232A5102232AE1012328E10055
:1053C000EF20D0580327010193076006032F410106
:1053D00083224103930C05003308E500631CFD00A4
:1053E00083C60C00930700036380F65683274106AB
:1053F0003308F80083278101938504001306000019
:105400001385070093060000232A5102232A010175
:105410002328E101EF70D012032F0101032841017D
:1054200083224103630605428327410763FE070188
:105430009306000313871700232AE1062380D70071
:1054400083274107E3E807FF032741062328E100FC
:10545000B3879741232AF1008327C1021307700401
:105460006384E714930760066312FD1803270101A4
:1054700093771900B3E737016356E07E639C0772A8
:1054800083240101130D6006138704006388025012
:105490009307D002A30FF104930900006FE09FED82
:1054A000032501001306C10793850A002326E102A4
:1054B0002328E101EF005020630405006FE0DFBE08
:1054C000032941080327C102032F010113040B0024
:1054D0006FF04FB1032501001306C10793850A0041
:1054E0002326E1022328E101EF00101D63040500DB
:1054F0006FE09FBB0329410883240108032F0101AA
:105500000327C10293090B006FF0CFE813850B004E
:10551000EFD00F876FE09F8C93860400032F01016B
:1055200093040400130407000327C1023309990000
:10553000938717002320D4006FE0DFB063CC0768A7
:105540008324C10193020000930910000327810105
:1055500093074106930841071305070093050500CB
:105560000325010013088106138709009306200014
:1055700013860400232A51002328E101EF20103D67
:1055800093771900032F010183224101930C050039
:1055900063900750832741062328F10083274107A2
:1055A000B387A740232AF100032701019307D0FF07
:1055B000634CF70263CAE902832741010327010113
:1055C000634CF750937F19008327010163960F5CAA
:1055D00013C7F7FF1357F74133F7E700938407002A
:1055E000130D70066FF09FEA130DEDFF0327010105
:1055F0002306A1079307B0029308F7FF23221107A0
:1056000063CC0832A306F1069307900063C0172D00
:105610009387080313070003A307F10693074000CD
:105620002307E1062328F102032741018326010312
:1056300093071000B304D70063D2E7488327010221
:1056400023280100B384F40013C7F4FF1357F74174
:1056500033F7E4006FF09FE38327410283260102C2
:1056600013048400232CF4FE83270108B38526014C
:10567000232ED4FE938717002322B1082320F1089C
:105680009306700063C2F620634406006FE0DFBB40
:10569000930600FFB304C0406356D660B70602808D
:1056A000938686DB2328E100930900011307040099
:1056B00013097000130D0F00138406006F00C00063
:1056C000938404FF63D4994493850501938717005D
:1056D00023208700232237012322B1082320F10849
:1056E00013078700E35EF9FC032501001306C107D9
:1056F00093850A00EF00407C630405006FE0DF9AA9
:10570000832541088327010813070B006FF05FFB17
:1057100013850C00EFD01F828346F1051347F5FF78
:105720001357F74123280100930405003377E50060
:10573000130F090093090000638406006FE09FC304
:105740006FE09FC3032F01019306090013090700AF
:105750001387090093890700330989009384140093
:1057600023A0D9006FF08FC1B70C0280938C4CC07E
:105770006FE0DFBE9307D002A30FF1049306D002BF
:105780006FE09FBC032FC1029385090093060900B7
:10579000930904001309060013040700138705008A
:1057A00033093901938717002320D40023223401C1
:1057B000232221092320F10893067000130484009A
:1057C00063DAF6EA032501001306C10793850A0090
:1057D000232AE1022326E103EF00006E63040500A3
:1057E0006FE09F8C0329410803274103032FC10267
:1057F00013040B006FF00FE81306C10793850A002E
:1058000013850B00EF00406B6FE01F8A93070000C9
:105810006FE0DFD8032501001306C10793850A0056
:10582000232AE1022326E103EF0000696304050057
:105830006FE09F870329410803274103032FC1021B
:1058400013040B006FF08FE1930460006FF01F975B
:10585000832741062328F100930708006FF05FBFFC
:10586000B7040080B3C4F4009302D0026FF09FB17C
:105870000327C10293075004E31AF7CC13871900DA
:10588000930620006FF01FB1032501001306C10726
:1058900093850A002326E1022328E101EF00C0617D
:1058A000630405006FE05F800326410683254108FD
:1058B000832701080327C102032F010113040B00F2
:1058C000634406006FE05F986FF09FDC1305B1073B
:1058D000930605001306A0001308300633E7C8023C
:1058E00093870600938508009386F6FF1307070346
:1058F000A38FE7FEB3C8C802E342B8FE938808034B
:105900001387E7FFA38F16FF6378A7389306E10696
:10591000034607001307170093861600A38FC6FEE1
:10592000E318A7FE1307010FB307F7409387F7F8B3
:105930002328F1026FF05FCF93071000B388E74090
:105940009307D0026FF01FCC83268101938504005A
:10595000130600001385060093060000232C510255
:10596000232A0103232AE1002328E101EF70403DAF
:10597000032F0101032741010328410383228103EF
:1059800063140526832741063308F8002328F10015
:10599000B3079841232AF1006FF05FAD8346F1050C
:1059A00093090000638406006FE0DF9C6FE0DF9CDA
:1059B000032501001306C10793850A00232AE1028B
:1059C0002326E103EF00404F630405006FE0CFEDB5
:1059D000832641060329410803274103032FC102FF
:1059E00013040B006FF0CFCC13090F0093070000D6
:1059F0006FE09FA18327C101E38209B4938407006C
:105A000093020000E3D407B4B7040080B3C4F400E9
:105A10009302D0026FF09FB3032501001306C10764
:105A200093850A002326E1022328E101EF00C04804
:105A3000630405006FE04FE7832641068327410199
:105A4000032941080327C102032F010113040B009E
:105A5000B386D7406FF08FCA930960006FF09F91B3
:105A60008346F10523280100138709009384090068
:105A7000130F090093090000638406006FE09F8FF5
:105A80006FE09F8FB7060280938686DA6FF04FA291
:105A9000330835016FF01F96B7060280938686DAC9
:105AA0006FF04FB3B7060280938686DB6FE05FEC42
:105AB0009307F0FF2322F1006FE04FE29377190084
:105AC0002328F100E39C07B613C7F4FF1357F741EF
:105AD00033F7E4006FF09F9B832741010327010206
